{
  "_format": "hh-sol-artifact-1",
  "contractName": "NFT",
  "sourceName": "contracts/NFT.sol",
  "abi": [
    {
      "inputs": [],
      "stateMutability": "nonpayable",
      "type": "constructor"
    },
    {
      "anonymous": false,
      "inputs": [
        {
          "indexed": false,
          "internalType": "address",
          "name": "previousAdmin",
          "type": "address"
        },
        {
          "indexed": false,
          "internalType": "address",
          "name": "newAdmin",
          "type": "address"
        }
      ],
      "name": "AdminChanged",
      "type": "event"
    },
    {
      "anonymous": false,
      "inputs": [
        {
          "indexed": true,
          "internalType": "address",
          "name": "owner",
          "type": "address"
        },
        {
          "indexed": true,
          "internalType": "address",
          "name": "approved",
          "type": "address"
        },
        {
          "indexed": true,
          "internalType": "uint256",
          "name": "tokenId",
          "type": "uint256"
        }
      ],
      "name": "Approval",
      "type": "event"
    },
    {
      "anonymous": false,
      "inputs": [
        {
          "indexed": true,
          "internalType": "address",
          "name": "owner",
          "type": "address"
        },
        {
          "indexed": true,
          "internalType": "address",
          "name": "operator",
          "type": "address"
        },
        {
          "indexed": false,
          "internalType": "bool",
          "name": "approved",
          "type": "bool"
        }
      ],
      "name": "ApprovalForAll",
      "type": "event"
    },
    {
      "anonymous": false,
      "inputs": [
        {
          "indexed": true,
          "internalType": "address",
          "name": "beacon",
          "type": "address"
        }
      ],
      "name": "BeaconUpgraded",
      "type": "event"
    },
    {
      "anonymous": false,
      "inputs": [
        {
          "indexed": false,
          "internalType": "uint8",
          "name": "version",
          "type": "uint8"
        }
      ],
      "name": "Initialized",
      "type": "event"
    },
    {
      "anonymous": false,
      "inputs": [
        {
          "indexed": true,
          "internalType": "address",
          "name": "previousOwner",
          "type": "address"
        },
        {
          "indexed": true,
          "internalType": "address",
          "name": "newOwner",
          "type": "address"
        }
      ],
      "name": "OwnershipTransferred",
      "type": "event"
    },
    {
      "anonymous": false,
      "inputs": [
        {
          "indexed": true,
          "internalType": "address",
          "name": "from",
          "type": "address"
        },
        {
          "indexed": true,
          "internalType": "address",
          "name": "to",
          "type": "address"
        },
        {
          "indexed": true,
          "internalType": "uint256",
          "name": "tokenId",
          "type": "uint256"
        }
      ],
      "name": "Transfer",
      "type": "event"
    },
    {
      "anonymous": false,
      "inputs": [
        {
          "indexed": true,
          "internalType": "address",
          "name": "implementation",
          "type": "address"
        }
      ],
      "name": "Upgraded",
      "type": "event"
    },
    {
      "inputs": [
        {
          "internalType": "address",
          "name": "to",
          "type": "address"
        },
        {
          "internalType": "uint256",
          "name": "tokenId",
          "type": "uint256"
        }
      ],
      "name": "approve",
      "outputs": [],
      "stateMutability": "nonpayable",
      "type": "function"
    },
    {
      "inputs": [
        {
          "internalType": "address",
          "name": "owner",
          "type": "address"
        }
      ],
      "name": "balanceOf",
      "outputs": [
        {
          "internalType": "uint256",
          "name": "",
          "type": "uint256"
        }
      ],
      "stateMutability": "view",
      "type": "function"
    },
    {
      "inputs": [
        {
          "internalType": "uint256",
          "name": "tokenId",
          "type": "uint256"
        }
      ],
      "name": "burn",
      "outputs": [],
      "stateMutability": "nonpayable",
      "type": "function"
    },
    {
      "inputs": [
        {
          "internalType": "uint256",
          "name": "tokenId",
          "type": "uint256"
        }
      ],
      "name": "getApproved",
      "outputs": [
        {
          "internalType": "address",
          "name": "",
          "type": "address"
        }
      ],
      "stateMutability": "view",
      "type": "function"
    },
    {
      "inputs": [],
      "name": "initialize",
      "outputs": [],
      "stateMutability": "nonpayable",
      "type": "function"
    },
    {
      "inputs": [
        {
          "internalType": "address",
          "name": "owner",
          "type": "address"
        },
        {
          "internalType": "address",
          "name": "operator",
          "type": "address"
        }
      ],
      "name": "isApprovedForAll",
      "outputs": [
        {
          "internalType": "bool",
          "name": "",
          "type": "bool"
        }
      ],
      "stateMutability": "view",
      "type": "function"
    },
    {
      "inputs": [],
      "name": "name",
      "outputs": [
        {
          "internalType": "string",
          "name": "",
          "type": "string"
        }
      ],
      "stateMutability": "view",
      "type": "function"
    },
    {
      "inputs": [],
      "name": "owner",
      "outputs": [
        {
          "internalType": "address",
          "name": "",
          "type": "address"
        }
      ],
      "stateMutability": "view",
      "type": "function"
    },
    {
      "inputs": [
        {
          "internalType": "uint256",
          "name": "tokenId",
          "type": "uint256"
        }
      ],
      "name": "ownerOf",
      "outputs": [
        {
          "internalType": "address",
          "name": "",
          "type": "address"
        }
      ],
      "stateMutability": "view",
      "type": "function"
    },
    {
      "inputs": [],
      "name": "proxiableUUID",
      "outputs": [
        {
          "internalType": "bytes32",
          "name": "",
          "type": "bytes32"
        }
      ],
      "stateMutability": "view",
      "type": "function"
    },
    {
      "inputs": [],
      "name": "renounceOwnership",
      "outputs": [],
      "stateMutability": "nonpayable",
      "type": "function"
    },
    {
      "inputs": [
        {
          "internalType": "address",
          "name": "to",
          "type": "address"
        },
        {
          "internalType": "string",
          "name": "uri",
          "type": "string"
        }
      ],
      "name": "safeMint",
      "outputs": [],
      "stateMutability": "nonpayable",
      "type": "function"
    },
    {
      "inputs": [
        {
          "internalType": "address",
          "name": "from",
          "type": "address"
        },
        {
          "internalType": "address",
          "name": "to",
          "type": "address"
        },
        {
          "internalType": "uint256",
          "name": "tokenId",
          "type": "uint256"
        }
      ],
      "name": "safeTransferFrom",
      "outputs": [],
      "stateMutability": "nonpayable",
      "type": "function"
    },
    {
      "inputs": [
        {
          "internalType": "address",
          "name": "from",
          "type": "address"
        },
        {
          "internalType": "address",
          "name": "to",
          "type": "address"
        },
        {
          "internalType": "uint256",
          "name": "tokenId",
          "type": "uint256"
        },
        {
          "internalType": "bytes",
          "name": "data",
          "type": "bytes"
        }
      ],
      "name": "safeTransferFrom",
      "outputs": [],
      "stateMutability": "nonpayable",
      "type": "function"
    },
    {
      "inputs": [
        {
          "internalType": "address",
          "name": "operator",
          "type": "address"
        },
        {
          "internalType": "bool",
          "name": "approved",
          "type": "bool"
        }
      ],
      "name": "setApprovalForAll",
      "outputs": [],
      "stateMutability": "nonpayable",
      "type": "function"
    },
    {
      "inputs": [
        {
          "internalType": "string",
          "name": "_uri",
          "type": "string"
        }
      ],
      "name": "setBaseURI",
      "outputs": [],
      "stateMutability": "nonpayable",
      "type": "function"
    },
    {
      "inputs": [
        {
          "internalType": "bytes4",
          "name": "interfaceId",
          "type": "bytes4"
        }
      ],
      "name": "supportsInterface",
      "outputs": [
        {
          "internalType": "bool",
          "name": "",
          "type": "bool"
        }
      ],
      "stateMutability": "view",
      "type": "function"
    },
    {
      "inputs": [],
      "name": "symbol",
      "outputs": [
        {
          "internalType": "string",
          "name": "",
          "type": "string"
        }
      ],
      "stateMutability": "view",
      "type": "function"
    },
    {
      "inputs": [
        {
          "internalType": "uint256",
          "name": "tokenId",
          "type": "uint256"
        }
      ],
      "name": "tokenURI",
      "outputs": [
        {
          "internalType": "string",
          "name": "",
          "type": "string"
        }
      ],
      "stateMutability": "view",
      "type": "function"
    },
    {
      "inputs": [
        {
          "internalType": "address",
          "name": "from",
          "type": "address"
        },
        {
          "internalType": "address",
          "name": "to",
          "type": "address"
        },
        {
          "internalType": "uint256",
          "name": "tokenId",
          "type": "uint256"
        }
      ],
      "name": "transferFrom",
      "outputs": [],
      "stateMutability": "nonpayable",
      "type": "function"
    },
    {
      "inputs": [
        {
          "internalType": "address",
          "name": "newOwner",
          "type": "address"
        }
      ],
      "name": "transferOwnership",
      "outputs": [],
      "stateMutability": "nonpayable",
      "type": "function"
    },
    {
      "inputs": [
        {
          "internalType": "address",
          "name": "newImplementation",
          "type": "address"
        }
      ],
      "name": "upgradeTo",
      "outputs": [],
      "stateMutability": "nonpayable",
      "type": "function"
    },
    {
      "inputs": [
        {
          "internalType": "address",
          "name": "newImplementation",
          "type": "address"
        },
        {
          "internalType": "bytes",
          "name": "data",
          "type": "bytes"
        }
      ],
      "name": "upgradeToAndCall",
      "outputs": [],
      "stateMutability": "payable",
      "type": "function"
    }
  ],
  "bytecode": "0x60a06040523073ffffffffffffffffffffffffffffffffffffffff1660809073ffffffffffffffffffffffffffffffffffffffff168152503480156200004457600080fd5b50620000556200005b60201b60201c565b62000206565b600060019054906101000a900460ff1615620000ae576040517f08c379a0000000000000000000000000000000000000000000000000000000008152600401620000a590620001a9565b60405180910390fd5b60ff801660008054906101000a900460ff1660ff161015620001205760ff6000806101000a81548160ff021916908360ff1602179055507f7f26b83ff96e1f2b6a682f133852f6798a09c465da95921460cefb384740249860ff604051620001179190620001e9565b60405180910390a15b565b600082825260208201905092915050565b7f496e697469616c697a61626c653a20636f6e747261637420697320696e69746960008201527f616c697a696e6700000000000000000000000000000000000000000000000000602082015250565b60006200019160278362000122565b91506200019e8262000133565b604082019050919050565b60006020820190508181036000830152620001c48162000182565b9050919050565b600060ff82169050919050565b620001e381620001cb565b82525050565b6000602082019050620002006000830184620001d8565b92915050565b60805161482d6200023e600039600081816108760152818161090401528181610a7a01528181610b080152610bb8015261482d6000f3fe6080604052600436106101405760003560e01c80636352211e116100b6578063a22cb4651161006f578063a22cb46514610425578063b88d4fde1461044e578063c87b56dd14610477578063d204c45e146104b4578063e985e9c5146104dd578063f2fde38b1461051a57610140565b80636352211e1461032757806370a0823114610364578063715018a6146103a15780638129fc1c146103b85780638da5cb5b146103cf57806395d89b41146103fa57610140565b80633659cfe6116101085780633659cfe61461023c57806342842e0e1461026557806342966c681461028e5780634f1ef286146102b757806352d1902d146102d357806355f804b3146102fe57610140565b806301ffc9a71461014557806306fdde0314610182578063081812fc146101ad578063095ea7b3146101ea57806323b872dd14610213575b600080fd5b34801561015157600080fd5b5061016c60048036038101906101679190612e56565b610543565b6040516101799190612e9e565b60405180910390f35b34801561018e57600080fd5b50610197610625565b6040516101a49190612f49565b60405180910390f35b3480156101b957600080fd5b506101d460048036038101906101cf9190612fa1565b6106b7565b6040516101e1919061300f565b60405180910390f35b3480156101f657600080fd5b50610211600480360381019061020c9190613056565b6106fd565b005b34801561021f57600080fd5b5061023a60048036038101906102359190613096565b610814565b005b34801561024857600080fd5b50610263600480360381019061025e91906130e9565b610874565b005b34801561027157600080fd5b5061028c60048036038101906102879190613096565b6109fc565b005b34801561029a57600080fd5b506102b560048036038101906102b09190612fa1565b610a1c565b005b6102d160048036038101906102cc919061324b565b610a78565b005b3480156102df57600080fd5b506102e8610bb4565b6040516102f591906132c0565b60405180910390f35b34801561030a57600080fd5b506103256004803603810190610320919061337c565b610c6d565b005b34801561033357600080fd5b5061034e60048036038101906103499190612fa1565b610c89565b60405161035b919061300f565b60405180910390f35b34801561037057600080fd5b5061038b600480360381019061038691906130e9565b610d0f565b60405161039891906133d4565b60405180910390f35b3480156103ad57600080fd5b506103b6610dc6565b005b3480156103c457600080fd5b506103cd610dda565b005b3480156103db57600080fd5b506103e4610fa4565b6040516103f1919061300f565b60405180910390f35b34801561040657600080fd5b5061040f610fce565b60405161041c9190612f49565b60405180910390f35b34801561043157600080fd5b5061044c6004803603810190610447919061341b565b611060565b005b34801561045a57600080fd5b506104756004803603810190610470919061345b565b611076565b005b34801561048357600080fd5b5061049e60048036038101906104999190612fa1565b6110d8565b6040516104ab9190612f49565b60405180910390f35b3480156104c057600080fd5b506104db60048036038101906104d691906134de565b6110ea565b005b3480156104e957600080fd5b5061050460048036038101906104ff919061353a565b611125565b6040516105119190612e9e565b60405180910390f35b34801561052657600080fd5b50610541600480360381019061053c91906130e9565b6111b9565b005b60007f80ac58cd000000000000000000000000000000000000000000000000000000007bffffffffffffffffffffffffffffffffffffffffffffffffffffffff1916827bffffffffffffffffffffffffffffffffffffffffffffffffffffffff1916148061060e57507f5b5e139f000000000000000000000000000000000000000000000000000000007bffffffffffffffffffffffffffffffffffffffffffffffffffffffff1916827bffffffffffffffffffffffffffffffffffffffffffffffffffffffff1916145b8061061e575061061d8261123c565b5b9050919050565b606060658054610634906135a9565b80601f0160208091040260200160405190810160405280929190818152602001828054610660906135a9565b80156106ad5780601f10610682576101008083540402835291602001916106ad565b820191906000526020600020905b81548152906001019060200180831161069057829003601f168201915b5050505050905090565b60006106c2826112a6565b6069600083815260200190815260200160002060009054906101000a900473ffffffffffffffffffffffffffffffffffffffff169050919050565b600061070882610c89565b90508073ffffffffffffffffffffffffffffffffffffffff168373ffffffffffffffffffffffffffffffffffffffff1603610778576040517f08c379a000000000000000000000000000000000000000000000000000000000815260040161076f9061364c565b60405180910390fd5b8073ffffffffffffffffffffffffffffffffffffffff166107976112f1565b73ffffffffffffffffffffffffffffffffffffffff1614806107c657506107c5816107c06112f1565b611125565b5b610805576040517f08c379a00000000000000000000000000000000000000000000000000000000081526004016107fc906136de565b60405180910390fd5b61080f83836112f9565b505050565b61082561081f6112f1565b826113b2565b610864576040517f08c379a000000000000000000000000000000000000000000000000000000000815260040161085b90613770565b60405180910390fd5b61086f838383611447565b505050565b7f000000000000000000000000000000000000000000000000000000000000000073ffffffffffffffffffffffffffffffffffffffff163073ffffffffffffffffffffffffffffffffffffffff1603610902576040517f08c379a00000000000000000000000000000000000000000000000000000000081526004016108f990613802565b60405180910390fd5b7f000000000000000000000000000000000000000000000000000000000000000073ffffffffffffffffffffffffffffffffffffffff16610941611740565b73ffffffffffffffffffffffffffffffffffffffff1614610997576040517f08c379a000000000000000000000000000000000000000000000000000000000815260040161098e90613894565b60405180910390fd5b6109a081611797565b6109f981600067ffffffffffffffff8111156109bf576109be613120565b5b6040519080825280601f01601f1916602001820160405280156109f15781602001600182028036833780820191505090505b5060006117a2565b50565b610a1783838360405180602001604052806000815250611076565b505050565b610a2d610a276112f1565b826113b2565b610a6c576040517f08c379a0000000000000000000000000000000000000000000000000000000008152600401610a6390613770565b60405180910390fd5b610a7581611910565b50565b7f000000000000000000000000000000000000000000000000000000000000000073ffffffffffffffffffffffffffffffffffffffff163073ffffffffffffffffffffffffffffffffffffffff1603610b06576040517f08c379a0000000000000000000000000000000000000000000000000000000008152600401610afd90613802565b60405180910390fd5b7f000000000000000000000000000000000000000000000000000000000000000073ffffffffffffffffffffffffffffffffffffffff16610b45611740565b73ffffffffffffffffffffffffffffffffffffffff1614610b9b576040517f08c379a0000000000000000000000000000000000000000000000000000000008152600401610b9290613894565b60405180910390fd5b610ba482611797565b610bb0828260016117a2565b5050565b60007f000000000000000000000000000000000000000000000000000000000000000073ffffffffffffffffffffffffffffffffffffffff163073ffffffffffffffffffffffffffffffffffffffff1614610c44576040517f08c379a0000000000000000000000000000000000000000000000000000000008152600401610c3b90613926565b60405180910390fd5b7f360894a13ba1a3210667c828492db98dca3e2076cc3735a920a3ca505d382bbc60001b905090565b610c7561191c565b806101929081610c859190613af2565b5050565b600080610c958361199a565b9050600073ffffffffffffffffffffffffffffffffffffffff168173ffffffffffffffffffffffffffffffffffffffff1603610d06576040517f08c379a0000000000000000000000000000000000000000000000000000000008152600401610cfd90613c10565b60405180910390fd5b80915050919050565b60008073ffffffffffffffffffffffffffffffffffffffff168273ffffffffffffffffffffffffffffffffffffffff1603610d7f576040517f08c379a0000000000000000000000000000000000000000000000000000000008152600401610d7690613ca2565b60405180910390fd5b606860008373ffffffffffffffffffffffffffffffffffffffff1673ffffffffffffffffffffffffffffffffffffffff168152602001908152602001600020549050919050565b610dce61191c565b610dd860006119d7565b565b60008060019054906101000a900460ff16159050808015610e0b5750600160008054906101000a900460ff1660ff16105b80610e385750610e1a30611a9d565b158015610e375750600160008054906101000a900460ff1660ff16145b5b610e77576040517f08c379a0000000000000000000000000000000000000000000000000000000008152600401610e6e90613d34565b60405180910390fd5b60016000806101000a81548160ff021916908360ff1602179055508015610eb4576001600060016101000a81548160ff0219169083151502179055505b610f286040518060400160405280600d81526020017f414920436f6c6c656374696f6e000000000000000000000000000000000000008152506040518060400160405280600381526020017f4149430000000000000000000000000000000000000000000000000000000000815250611ac0565b610f30611b1d565b610f38611b6e565b610f40611bbf565b610f48611c18565b8015610fa15760008060016101000a81548160ff0219169083151502179055507f7f26b83ff96e1f2b6a682f133852f6798a09c465da95921460cefb38474024986001604051610f989190613d9c565b60405180910390a15b50565b600060fb60009054906101000a900473ffffffffffffffffffffffffffffffffffffffff16905090565b606060668054610fdd906135a9565b80601f0160208091040260200160405190810160405280929190818152602001828054611009906135a9565b80156110565780601f1061102b57610100808354040283529160200191611056565b820191906000526020600020905b81548152906001019060200180831161103957829003601f168201915b5050505050905090565b61107261106b6112f1565b8383611c69565b5050565b6110876110816112f1565b836113b2565b6110c6576040517f08c379a00000000000000000000000000000000000000000000000000000000081526004016110bd90613770565b60405180910390fd5b6110d284848484611dd5565b50505050565b60606110e382611e31565b9050919050565b6110f261191c565b60006110ff610191611f43565b905061110c610191611f51565b6111168382611f67565b6111208183611f85565b505050565b6000606a60008473ffffffffffffffffffffffffffffffffffffffff1673ffffffffffffffffffffffffffffffffffffffff16815260200190815260200160002060008373ffffffffffffffffffffffffffffffffffffffff1673ffffffffffffffffffffffffffffffffffffffff16815260200190815260200160002060009054906101000a900460ff16905092915050565b6111c161191c565b600073ffffffffffffffffffffffffffffffffffffffff168173ffffffffffffffffffffffffffffffffffffffff1603611230576040517f08c379a000000000000000000000000000000000000000000000000000000000815260040161122790613e29565b60405180910390fd5b611239816119d7565b50565b60007f01ffc9a7000000000000000000000000000000000000000000000000000000007bffffffffffffffffffffffffffffffffffffffffffffffffffffffff1916827bffffffffffffffffffffffffffffffffffffffffffffffffffffffff1916149050919050565b6112af81611ff2565b6112ee576040517f08c379a00000000000000000000000000000000000000000000000000000000081526004016112e590613c10565b60405180910390fd5b50565b600033905090565b816069600083815260200190815260200160002060006101000a81548173ffffffffffffffffffffffffffffffffffffffff021916908373ffffffffffffffffffffffffffffffffffffffff160217905550808273ffffffffffffffffffffffffffffffffffffffff1661136c83610c89565b73ffffffffffffffffffffffffffffffffffffffff167f8c5be1e5ebec7d5bd14f71427d1e84f3dd0314c0f7b2291e5b200ac8c7c3b92560405160405180910390a45050565b6000806113be83610c89565b90508073ffffffffffffffffffffffffffffffffffffffff168473ffffffffffffffffffffffffffffffffffffffff16148061140057506113ff8185611125565b5b8061143e57508373ffffffffffffffffffffffffffffffffffffffff16611426846106b7565b73ffffffffffffffffffffffffffffffffffffffff16145b91505092915050565b8273ffffffffffffffffffffffffffffffffffffffff1661146782610c89565b73ffffffffffffffffffffffffffffffffffffffff16146114bd576040517f08c379a00000000000000000000000000000000000000000000000000000000081526004016114b490613ebb565b60405180910390fd5b600073ffffffffffffffffffffffffffffffffffffffff168273ffffffffffffffffffffffffffffffffffffffff160361152c576040517f08c379a000000000000000000000000000000000000000000000000000000000815260040161152390613f4d565b60405180910390fd5b6115398383836001612033565b8273ffffffffffffffffffffffffffffffffffffffff1661155982610c89565b73ffffffffffffffffffffffffffffffffffffffff16146115af576040517f08c379a00000000000000000000000000000000000000000000000000000000081526004016115a690613ebb565b60405180910390fd5b6069600082815260200190815260200160002060006101000a81549073ffffffffffffffffffffffffffffffffffffffff02191690556001606860008573ffffffffffffffffffffffffffffffffffffffff1673ffffffffffffffffffffffffffffffffffffffff168152602001908152602001600020600082825403925050819055506001606860008473ffffffffffffffffffffffffffffffffffffffff1673ffffffffffffffffffffffffffffffffffffffff16815260200190815260200160002060008282540192505081905550816067600083815260200190815260200160002060006101000a81548173ffffffffffffffffffffffffffffffffffffffff021916908373ffffffffffffffffffffffffffffffffffffffff160217905550808273ffffffffffffffffffffffffffffffffffffffff168473ffffffffffffffffffffffffffffffffffffffff167fddf252ad1be2c89b69c2b068fc378daa952ba7f163c4a11628f55a4df523b3ef60405160405180910390a461173b8383836001612159565b505050565b600061176e7f360894a13ba1a3210667c828492db98dca3e2076cc3735a920a3ca505d382bbc60001b61215f565b60000160009054906101000a900473ffffffffffffffffffffffffffffffffffffffff16905090565b61179f61191c565b50565b6117ce7f4910fdfa16fed3260ed0e7147f7cc6da11a60208b5b9406d12a635614ffd914360001b612169565b60000160009054906101000a900460ff16156117f2576117ed83612173565b61190b565b8273ffffffffffffffffffffffffffffffffffffffff166352d1902d6040518163ffffffff1660e01b8152600401602060405180830381865afa92505050801561185a57506040513d601f19601f820116820180604052508101906118579190613f99565b60015b611899576040517f08c379a000000000000000000000000000000000000000000000000000000000815260040161189090614038565b60405180910390fd5b7f360894a13ba1a3210667c828492db98dca3e2076cc3735a920a3ca505d382bbc60001b81146118fe576040517f08c379a00000000000000000000000000000000000000000000000000000000081526004016118f5906140ca565b60405180910390fd5b5061190a83838361222c565b5b505050565b61191981612258565b50565b6119246112f1565b73ffffffffffffffffffffffffffffffffffffffff16611942610fa4565b73ffffffffffffffffffffffffffffffffffffffff1614611998576040517f08c379a000000000000000000000000000000000000000000000000000000000815260040161198f90614136565b60405180910390fd5b565b60006067600083815260200190815260200160002060009054906101000a900473ffffffffffffffffffffffffffffffffffffffff169050919050565b600060fb60009054906101000a900473ffffffffffffffffffffffffffffffffffffffff1690508160fb60006101000a81548173ffffffffffffffffffffffffffffffffffffffff021916908373ffffffffffffffffffffffffffffffffffffffff1602179055508173ffffffffffffffffffffffffffffffffffffffff168173ffffffffffffffffffffffffffffffffffffffff167f8be0079c531659141344cd1fd0a4f28419497f9722a3daafe3b4186f6b6457e060405160405180910390a35050565b6000808273ffffffffffffffffffffffffffffffffffffffff163b119050919050565b600060019054906101000a900460ff16611b0f576040517f08c379a0000000000000000000000000000000000000000000000000000000008152600401611b06906141c8565b60405180910390fd5b611b1982826122ab565b5050565b600060019054906101000a900460ff16611b6c576040517f08c379a0000000000000000000000000000000000000000000000000000000008152600401611b63906141c8565b60405180910390fd5b565b600060019054906101000a900460ff16611bbd576040517f08c379a0000000000000000000000000000000000000000000000000000000008152600401611bb4906141c8565b60405180910390fd5b565b600060019054906101000a900460ff16611c0e576040517f08c379a0000000000000000000000000000000000000000000000000000000008152600401611c05906141c8565b60405180910390fd5b611c1661231e565b565b600060019054906101000a900460ff16611c67576040517f08c379a0000000000000000000000000000000000000000000000000000000008152600401611c5e906141c8565b60405180910390fd5b565b8173ffffffffffffffffffffffffffffffffffffffff168373ffffffffffffffffffffffffffffffffffffffff1603611cd7576040517f08c379a0000000000000000000000000000000000000000000000000000000008152600401611cce90614234565b60405180910390fd5b80606a60008573ffffffffffffffffffffffffffffffffffffffff1673ffffffffffffffffffffffffffffffffffffffff16815260200190815260200160002060008473ffffffffffffffffffffffffffffffffffffffff1673ffffffffffffffffffffffffffffffffffffffff16815260200190815260200160002060006101000a81548160ff0219169083151502179055508173ffffffffffffffffffffffffffffffffffffffff168373ffffffffffffffffffffffffffffffffffffffff167f17307eab39ab6107e8899845ad3d59bd9653f200f220920489ca2b5937696c3183604051611dc89190612e9e565b60405180910390a3505050565b611de0848484611447565b611dec8484848461237f565b611e2b576040517f08c379a0000000000000000000000000000000000000000000000000000000008152600401611e22906142c6565b60405180910390fd5b50505050565b6060611e3c826112a6565b6000609760008481526020019081526020016000208054611e5c906135a9565b80601f0160208091040260200160405190810160405280929190818152602001828054611e88906135a9565b8015611ed55780601f10611eaa57610100808354040283529160200191611ed5565b820191906000526020600020905b815481529060010190602001808311611eb857829003601f168201915b505050505090506000611ee6612506565b90506000815103611efb578192505050611f3e565b600082511115611f30578082604051602001611f18929190614322565b60405160208183030381529060405292505050611f3e565b611f3984612599565b925050505b919050565b600081600001549050919050565b6001816000016000828254019250508190555050565b611f81828260405180602001604052806000815250612601565b5050565b611f8e82611ff2565b611fcd576040517f08c379a0000000000000000000000000000000000000000000000000000000008152600401611fc4906143b8565b60405180910390fd5b80609760008481526020019081526020016000209081611fed9190613af2565b505050565b60008073ffffffffffffffffffffffffffffffffffffffff166120148361199a565b73ffffffffffffffffffffffffffffffffffffffff1614159050919050565b600181111561215357600073ffffffffffffffffffffffffffffffffffffffff168473ffffffffffffffffffffffffffffffffffffffff16146120c75780606860008673ffffffffffffffffffffffffffffffffffffffff1673ffffffffffffffffffffffffffffffffffffffff16815260200190815260200160002060008282546120bf9190614407565b925050819055505b600073ffffffffffffffffffffffffffffffffffffffff168373ffffffffffffffffffffffffffffffffffffffff16146121525780606860008573ffffffffffffffffffffffffffffffffffffffff1673ffffffffffffffffffffffffffffffffffffffff168152602001908152602001600020600082825461214a919061443b565b925050819055505b5b50505050565b50505050565b6000819050919050565b6000819050919050565b61217c81611a9d565b6121bb576040517f08c379a00000000000000000000000000000000000000000000000000000000081526004016121b2906144e1565b60405180910390fd5b806121e87f360894a13ba1a3210667c828492db98dca3e2076cc3735a920a3ca505d382bbc60001b61215f565b60000160006101000a81548173ffffffffffffffffffffffffffffffffffffffff021916908373ffffffffffffffffffffffffffffffffffffffff16021790555050565b6122358361265c565b6000825111806122425750805b156122535761225183836126ab565b505b505050565b6122618161278f565b6000609760008381526020019081526020016000208054612281906135a9565b9050146122a8576097600082815260200190815260200160002060006122a79190612d8d565b5b50565b600060019054906101000a900460ff166122fa576040517f08c379a00000000000000000000000000000000000000000000000000000000081526004016122f1906141c8565b60405180910390fd5b81606590816123099190613af2565b5080606690816123199190613af2565b505050565b600060019054906101000a900460ff1661236d576040517f08c379a0000000000000000000000000000000000000000000000000000000008152600401612364906141c8565b60405180910390fd5b61237d6123786112f1565b6119d7565b565b60006123a08473ffffffffffffffffffffffffffffffffffffffff16611a9d565b156124f9578373ffffffffffffffffffffffffffffffffffffffff1663150b7a026123c96112f1565b8786866040518563ffffffff1660e01b81526004016123eb9493929190614556565b6020604051808303816000875af192505050801561242757506040513d601f19601f8201168201806040525081019061242491906145b7565b60015b6124a9573d8060008114612457576040519150601f19603f3d011682016040523d82523d6000602084013e61245c565b606091505b5060008151036124a1576040517f08c379a0000000000000000000000000000000000000000000000000000000008152600401612498906142c6565b60405180910390fd5b805181602001fd5b63150b7a0260e01b7bffffffffffffffffffffffffffffffffffffffffffffffffffffffff1916817bffffffffffffffffffffffffffffffffffffffffffffffffffffffff1916149150506124fe565b600190505b949350505050565b60606101928054612516906135a9565b80601f0160208091040260200160405190810160405280929190818152602001828054612542906135a9565b801561258f5780601f106125645761010080835404028352916020019161258f565b820191906000526020600020905b81548152906001019060200180831161257257829003601f168201915b5050505050905090565b60606125a4826112a6565b60006125ae612506565b905060008151116125ce57604051806020016040528060008152506125f9565b806125d8846128dd565b6040516020016125e9929190614322565b6040516020818303038152906040525b915050919050565b61260b83836129ab565b612618600084848461237f565b612657576040517f08c379a000000000000000000000000000000000000000000000000000000000815260040161264e906142c6565b60405180910390fd5b505050565b61266581612173565b8073ffffffffffffffffffffffffffffffffffffffff167fbc7cd75a20ee27fd9adebab32041f755214dbc6bffa90cc0225b39da2e5c2d3b60405160405180910390a250565b60606126b683611a9d565b6126f5576040517f08c379a00000000000000000000000000000000000000000000000000000000081526004016126ec90614656565b60405180910390fd5b6000808473ffffffffffffffffffffffffffffffffffffffff168460405161271d91906146b2565b600060405180830381855af49150503d8060008114612758576040519150601f19603f3d011682016040523d82523d6000602084013e61275d565b606091505b509150915061278582826040518060600160405280602781526020016147d160279139612bc8565b9250505092915050565b600061279a82610c89565b90506127aa816000846001612033565b6127b382610c89565b90506069600083815260200190815260200160002060006101000a81549073ffffffffffffffffffffffffffffffffffffffff02191690556001606860008373ffffffffffffffffffffffffffffffffffffffff1673ffffffffffffffffffffffffffffffffffffffff168152602001908152602001600020600082825403925050819055506067600083815260200190815260200160002060006101000a81549073ffffffffffffffffffffffffffffffffffffffff021916905581600073ffffffffffffffffffffffffffffffffffffffff168273ffffffffffffffffffffffffffffffffffffffff167fddf252ad1be2c89b69c2b068fc378daa952ba7f163c4a11628f55a4df523b3ef60405160405180910390a46128d9816000846001612159565b5050565b6060600060016128ec84612bea565b01905060008167ffffffffffffffff81111561290b5761290a613120565b5b6040519080825280601f01601f19166020018201604052801561293d5781602001600182028036833780820191505090505b509050600082602001820190505b6001156129a0578080600190039150507f3031323334353637383961626364656600000000000000000000000000000000600a86061a8153600a8581612994576129936146c9565b5b0494506000850361294b575b819350505050919050565b600073ffffffffffffffffffffffffffffffffffffffff168273ffffffffffffffffffffffffffffffffffffffff1603612a1a576040517f08c379a0000000000000000000000000000000000000000000000000000000008152600401612a1190614744565b60405180910390fd5b612a2381611ff2565b15612a63576040517f08c379a0000000000000000000000000000000000000000000000000000000008152600401612a5a906147b0565b60405180910390fd5b612a71600083836001612033565b612a7a81611ff2565b15612aba576040517f08c379a0000000000000000000000000000000000000000000000000000000008152600401612ab1906147b0565b60405180910390fd5b6001606860008473ffffffffffffffffffffffffffffffffffffffff1673ffffffffffffffffffffffffffffffffffffffff16815260200190815260200160002060008282540192505081905550816067600083815260200190815260200160002060006101000a81548173ffffffffffffffffffffffffffffffffffffffff021916908373ffffffffffffffffffffffffffffffffffffffff160217905550808273ffffffffffffffffffffffffffffffffffffffff16600073ffffffffffffffffffffffffffffffffffffffff167fddf252ad1be2c89b69c2b068fc378daa952ba7f163c4a11628f55a4df523b3ef60405160405180910390a4612bc4600083836001612159565b5050565b60608315612bd857829050612be3565b612be28383612d3d565b5b9392505050565b600080600090507a184f03e93ff9f4daa797ed6e38ed64bf6a1f0100000000000000008310612c48577a184f03e93ff9f4daa797ed6e38ed64bf6a1f0100000000000000008381612c3e57612c3d6146c9565b5b0492506040810190505b6d04ee2d6d415b85acef81000000008310612c85576d04ee2d6d415b85acef81000000008381612c7b57612c7a6146c9565b5b0492506020810190505b662386f26fc100008310612cb457662386f26fc100008381612caa57612ca96146c9565b5b0492506010810190505b6305f5e1008310612cdd576305f5e1008381612cd357612cd26146c9565b5b0492506008810190505b6127108310612d02576127108381612cf857612cf76146c9565b5b0492506004810190505b60648310612d255760648381612d1b57612d1a6146c9565b5b0492506002810190505b600a8310612d34576001810190505b80915050919050565b600082511115612d505781518083602001fd5b806040517f08c379a0000000000000000000000000000000000000000000000000000000008152600401612d849190612f49565b60405180910390fd5b508054612d99906135a9565b6000825580601f10612dab5750612dca565b601f016020900490600052602060002090810190612dc99190612dcd565b5b50565b5b80821115612de6576000816000905550600101612dce565b5090565b6000604051905090565b600080fd5b600080fd5b60007fffffffff0000000000000000000000000000000000000000000000000000000082169050919050565b612e3381612dfe565b8114612e3e57600080fd5b50565b600081359050612e5081612e2a565b92915050565b600060208284031215612e6c57612e6b612df4565b5b6000612e7a84828501612e41565b91505092915050565b60008115159050919050565b612e9881612e83565b82525050565b6000602082019050612eb36000830184612e8f565b92915050565b600081519050919050565b600082825260208201905092915050565b60005b83811015612ef3578082015181840152602081019050612ed8565b60008484015250505050565b6000601f19601f8301169050919050565b6000612f1b82612eb9565b612f258185612ec4565b9350612f35818560208601612ed5565b612f3e81612eff565b840191505092915050565b60006020820190508181036000830152612f638184612f10565b905092915050565b6000819050919050565b612f7e81612f6b565b8114612f8957600080fd5b50565b600081359050612f9b81612f75565b92915050565b600060208284031215612fb757612fb6612df4565b5b6000612fc584828501612f8c565b91505092915050565b600073ffffffffffffffffffffffffffffffffffffffff82169050919050565b6000612ff982612fce565b9050919050565b61300981612fee565b82525050565b60006020820190506130246000830184613000565b92915050565b61303381612fee565b811461303e57600080fd5b50565b6000813590506130508161302a565b92915050565b6000806040838503121561306d5761306c612df4565b5b600061307b85828601613041565b925050602061308c85828601612f8c565b9150509250929050565b6000806000606084860312156130af576130ae612df4565b5b60006130bd86828701613041565b93505060206130ce86828701613041565b92505060406130df86828701612f8c565b9150509250925092565b6000602082840312156130ff576130fe612df4565b5b600061310d84828501613041565b91505092915050565b600080fd5b600080fd5b7f4e487b7100000000000000000000000000000000000000000000000000000000600052604160045260246000fd5b61315882612eff565b810181811067ffffffffffffffff8211171561317757613176613120565b5b80604052505050565b600061318a612dea565b9050613196828261314f565b919050565b600067ffffffffffffffff8211156131b6576131b5613120565b5b6131bf82612eff565b9050602081019050919050565b82818337600083830152505050565b60006131ee6131e98461319b565b613180565b90508281526020810184848401111561320a5761320961311b565b5b6132158482856131cc565b509392505050565b600082601f83011261323257613231613116565b5b81356132428482602086016131db565b91505092915050565b6000806040838503121561326257613261612df4565b5b600061327085828601613041565b925050602083013567ffffffffffffffff81111561329157613290612df9565b5b61329d8582860161321d565b9150509250929050565b6000819050919050565b6132ba816132a7565b82525050565b60006020820190506132d560008301846132b1565b92915050565b600067ffffffffffffffff8211156132f6576132f5613120565b5b6132ff82612eff565b9050602081019050919050565b600061331f61331a846132db565b613180565b90508281526020810184848401111561333b5761333a61311b565b5b6133468482856131cc565b509392505050565b600082601f83011261336357613362613116565b5b813561337384826020860161330c565b91505092915050565b60006020828403121561339257613391612df4565b5b600082013567ffffffffffffffff8111156133b0576133af612df9565b5b6133bc8482850161334e565b91505092915050565b6133ce81612f6b565b82525050565b60006020820190506133e960008301846133c5565b92915050565b6133f881612e83565b811461340357600080fd5b50565b600081359050613415816133ef565b92915050565b6000806040838503121561343257613431612df4565b5b600061344085828601613041565b925050602061345185828601613406565b9150509250929050565b6000806000806080858703121561347557613474612df4565b5b600061348387828801613041565b945050602061349487828801613041565b93505060406134a587828801612f8c565b925050606085013567ffffffffffffffff8111156134c6576134c5612df9565b5b6134d28782880161321d565b91505092959194509250565b600080604083850312156134f5576134f4612df4565b5b600061350385828601613041565b925050602083013567ffffffffffffffff81111561352457613523612df9565b5b6135308582860161334e565b9150509250929050565b6000806040838503121561355157613550612df4565b5b600061355f85828601613041565b925050602061357085828601613041565b9150509250929050565b7f4e487b7100000000000000000000000000000000000000000000000000000000600052602260045260246000fd5b600060028204905060018216806135c157607f821691505b6020821081036135d4576135d361357a565b5b50919050565b7f4552433732313a20617070726f76616c20746f2063757272656e74206f776e6560008201527f7200000000000000000000000000000000000000000000000000000000000000602082015250565b6000613636602183612ec4565b9150613641826135da565b604082019050919050565b6000602082019050818103600083015261366581613629565b9050919050565b7f4552433732313a20617070726f76652063616c6c6572206973206e6f7420746f60008201527f6b656e206f776e6572206f7220617070726f76656420666f7220616c6c000000602082015250565b60006136c8603d83612ec4565b91506136d38261366c565b604082019050919050565b600060208201905081810360008301526136f7816136bb565b9050919050565b7f4552433732313a2063616c6c6572206973206e6f7420746f6b656e206f776e6560008201527f72206f7220617070726f76656400000000000000000000000000000000000000602082015250565b600061375a602d83612ec4565b9150613765826136fe565b604082019050919050565b600060208201905081810360008301526137898161374d565b9050919050565b7f46756e6374696f6e206d7573742062652063616c6c6564207468726f7567682060008201527f64656c656761746563616c6c0000000000000000000000000000000000000000602082015250565b60006137ec602c83612ec4565b91506137f782613790565b604082019050919050565b6000602082019050818103600083015261381b816137df565b9050919050565b7f46756e6374696f6e206d7573742062652063616c6c6564207468726f7567682060008201527f6163746976652070726f78790000000000000000000000000000000000000000602082015250565b600061387e602c83612ec4565b915061388982613822565b604082019050919050565b600060208201905081810360008301526138ad81613871565b9050919050565b7f555550535570677261646561626c653a206d757374206e6f742062652063616c60008201527f6c6564207468726f7567682064656c656761746563616c6c0000000000000000602082015250565b6000613910603883612ec4565b915061391b826138b4565b604082019050919050565b6000602082019050818103600083015261393f81613903565b9050919050565b60008190508160005260206000209050919050565b60006020601f8301049050919050565b600082821b905092915050565b6000600883026139a87fffffffffffffffffffffffffffffffffffffffffffffffffffffffffffffffff8261396b565b6139b2868361396b565b95508019841693508086168417925050509392505050565b6000819050919050565b60006139ef6139ea6139e584612f6b565b6139ca565b612f6b565b9050919050565b6000819050919050565b613a09836139d4565b613a1d613a15826139f6565b848454613978565b825550505050565b600090565b613a32613a25565b613a3d818484613a00565b505050565b5b81811015613a6157613a56600082613a2a565b600181019050613a43565b5050565b601f821115613aa657613a7781613946565b613a808461395b565b81016020851015613a8f578190505b613aa3613a9b8561395b565b830182613a42565b50505b505050565b600082821c905092915050565b6000613ac960001984600802613aab565b1980831691505092915050565b6000613ae28383613ab8565b9150826002028217905092915050565b613afb82612eb9565b67ffffffffffffffff811115613b1457613b13613120565b5b613b1e82546135a9565b613b29828285613a65565b600060209050601f831160018114613b5c5760008415613b4a578287015190505b613b548582613ad6565b865550613bbc565b601f198416613b6a86613946565b60005b82811015613b9257848901518255600182019150602085019450602081019050613b6d565b86831015613baf5784890151613bab601f891682613ab8565b8355505b6001600288020188555050505b505050505050565b7f4552433732313a20696e76616c696420746f6b656e2049440000000000000000600082015250565b6000613bfa601883612ec4565b9150613c0582613bc4565b602082019050919050565b60006020820190508181036000830152613c2981613bed565b9050919050565b7f4552433732313a2061646472657373207a65726f206973206e6f74206120766160008201527f6c6964206f776e65720000000000000000000000000000000000000000000000602082015250565b6000613c8c602983612ec4565b9150613c9782613c30565b604082019050919050565b60006020820190508181036000830152613cbb81613c7f565b9050919050565b7f496e697469616c697a61626c653a20636f6e747261637420697320616c72656160008201527f647920696e697469616c697a6564000000000000000000000000000000000000602082015250565b6000613d1e602e83612ec4565b9150613d2982613cc2565b604082019050919050565b60006020820190508181036000830152613d4d81613d11565b9050919050565b6000819050919050565b600060ff82169050919050565b6000613d86613d81613d7c84613d54565b6139ca565b613d5e565b9050919050565b613d9681613d6b565b82525050565b6000602082019050613db16000830184613d8d565b92915050565b7f4f776e61626c653a206e6577206f776e657220697320746865207a65726f206160008201527f6464726573730000000000000000000000000000000000000000000000000000602082015250565b6000613e13602683612ec4565b9150613e1e82613db7565b604082019050919050565b60006020820190508181036000830152613e4281613e06565b9050919050565b7f4552433732313a207472616e736665722066726f6d20696e636f72726563742060008201527f6f776e6572000000000000000000000000000000000000000000000000000000602082015250565b6000613ea5602583612ec4565b9150613eb082613e49565b604082019050919050565b60006020820190508181036000830152613ed481613e98565b9050919050565b7f4552433732313a207472616e7366657220746f20746865207a65726f2061646460008201527f7265737300000000000000000000000000000000000000000000000000000000602082015250565b6000613f37602483612ec4565b9150613f4282613edb565b604082019050919050565b60006020820190508181036000830152613f6681613f2a565b9050919050565b613f76816132a7565b8114613f8157600080fd5b50565b600081519050613f9381613f6d565b92915050565b600060208284031215613faf57613fae612df4565b5b6000613fbd84828501613f84565b91505092915050565b7f45524331393637557067726164653a206e657720696d706c656d656e7461746960008201527f6f6e206973206e6f742055555053000000000000000000000000000000000000602082015250565b6000614022602e83612ec4565b915061402d82613fc6565b604082019050919050565b6000602082019050818103600083015261405181614015565b9050919050565b7f45524331393637557067726164653a20756e737570706f727465642070726f7860008201527f6961626c65555549440000000000000000000000000000000000000000000000602082015250565b60006140b4602983612ec4565b91506140bf82614058565b604082019050919050565b600060208201905081810360008301526140e3816140a7565b9050919050565b7f4f776e61626c653a2063616c6c6572206973206e6f7420746865206f776e6572600082015250565b6000614120602083612ec4565b915061412b826140ea565b602082019050919050565b6000602082019050818103600083015261414f81614113565b9050919050565b7f496e697469616c697a61626c653a20636f6e7472616374206973206e6f74206960008201527f6e697469616c697a696e67000000000000000000000000000000000000000000602082015250565b60006141b2602b83612ec4565b91506141bd82614156565b604082019050919050565b600060208201905081810360008301526141e1816141a5565b9050919050565b7f4552433732313a20617070726f766520746f2063616c6c657200000000000000600082015250565b600061421e601983612ec4565b9150614229826141e8565b602082019050919050565b6000602082019050818103600083015261424d81614211565b9050919050565b7f4552433732313a207472616e7366657220746f206e6f6e20455243373231526560008201527f63656976657220696d706c656d656e7465720000000000000000000000000000602082015250565b60006142b0603283612ec4565b91506142bb82614254565b604082019050919050565b600060208201905081810360008301526142df816142a3565b9050919050565b600081905092915050565b60006142fc82612eb9565b61430681856142e6565b9350614316818560208601612ed5565b80840191505092915050565b600061432e82856142f1565b915061433a82846142f1565b91508190509392505050565b7f45524337323155524953746f726167653a2055524920736574206f66206e6f6e60008201527f6578697374656e7420746f6b656e000000000000000000000000000000000000602082015250565b60006143a2602e83612ec4565b91506143ad82614346565b604082019050919050565b600060208201905081810360008301526143d181614395565b9050919050565b7f4e487b7100000000000000000000000000000000000000000000000000000000600052601160045260246000fd5b600061441282612f6b565b915061441d83612f6b565b9250828203905081811115614435576144346143d8565b5b92915050565b600061444682612f6b565b915061445183612f6b565b9250828201905080821115614469576144686143d8565b5b92915050565b7f455243313936373a206e657720696d706c656d656e746174696f6e206973206e60008201527f6f74206120636f6e747261637400000000000000000000000000000000000000602082015250565b60006144cb602d83612ec4565b91506144d68261446f565b604082019050919050565b600060208201905081810360008301526144fa816144be565b9050919050565b600081519050919050565b600082825260208201905092915050565b600061452882614501565b614532818561450c565b9350614542818560208601612ed5565b61454b81612eff565b840191505092915050565b600060808201905061456b6000830187613000565b6145786020830186613000565b61458560408301856133c5565b8181036060830152614597818461451d565b905095945050505050565b6000815190506145b181612e2a565b92915050565b6000602082840312156145cd576145cc612df4565b5b60006145db848285016145a2565b91505092915050565b7f416464726573733a2064656c65676174652063616c6c20746f206e6f6e2d636f60008201527f6e74726163740000000000000000000000000000000000000000000000000000602082015250565b6000614640602683612ec4565b915061464b826145e4565b604082019050919050565b6000602082019050818103600083015261466f81614633565b9050919050565b600081905092915050565b600061468c82614501565b6146968185614676565b93506146a6818560208601612ed5565b80840191505092915050565b60006146be8284614681565b915081905092915050565b7f4e487b7100000000000000000000000000000000000000000000000000000000600052601260045260246000fd5b7f4552433732313a206d696e7420746f20746865207a65726f2061646472657373600082015250565b600061472e602083612ec4565b9150614739826146f8565b602082019050919050565b6000602082019050818103600083015261475d81614721565b9050919050565b7f4552433732313a20746f6b656e20616c7265616479206d696e74656400000000600082015250565b600061479a601c83612ec4565b91506147a582614764565b602082019050919050565b600060208201905081810360008301526147c98161478d565b905091905056fe416464726573733a206c6f772d6c6576656c2064656c65676174652063616c6c206661696c6564a264697066735822122054e205a5741caca08ef1f9a5e232c465a312fec1c69a2c537b1eeac725df607764736f6c63430008110033",
  "linkReferences": {},
  "deployedLinkReferences": {}
}