{
  "_format": "hh-sol-artifact-1",
  "contractName": "NFTV2",
  "sourceName": "contracts/NFTV2.sol",
  "abi": [
    {
      "inputs": [],
      "stateMutability": "nonpayable",
      "type": "constructor"
    },
    {
      "anonymous": false,
      "inputs": [
        {
          "indexed": false,
          "internalType": "address",
          "name": "previousAdmin",
          "type": "address"
        },
        {
          "indexed": false,
          "internalType": "address",
          "name": "newAdmin",
          "type": "address"
        }
      ],
      "name": "AdminChanged",
      "type": "event"
    },
    {
      "anonymous": false,
      "inputs": [
        {
          "indexed": true,
          "internalType": "address",
          "name": "owner",
          "type": "address"
        },
        {
          "indexed": true,
          "internalType": "address",
          "name": "approved",
          "type": "address"
        },
        {
          "indexed": true,
          "internalType": "uint256",
          "name": "tokenId",
          "type": "uint256"
        }
      ],
      "name": "Approval",
      "type": "event"
    },
    {
      "anonymous": false,
      "inputs": [
        {
          "indexed": true,
          "internalType": "address",
          "name": "owner",
          "type": "address"
        },
        {
          "indexed": true,
          "internalType": "address",
          "name": "operator",
          "type": "address"
        },
        {
          "indexed": false,
          "internalType": "bool",
          "name": "approved",
          "type": "bool"
        }
      ],
      "name": "ApprovalForAll",
      "type": "event"
    },
    {
      "anonymous": false,
      "inputs": [
        {
          "indexed": true,
          "internalType": "address",
          "name": "beacon",
          "type": "address"
        }
      ],
      "name": "BeaconUpgraded",
      "type": "event"
    },
    {
      "anonymous": false,
      "inputs": [
        {
          "indexed": false,
          "internalType": "uint8",
          "name": "version",
          "type": "uint8"
        }
      ],
      "name": "Initialized",
      "type": "event"
    },
    {
      "anonymous": false,
      "inputs": [
        {
          "indexed": true,
          "internalType": "address",
          "name": "previousOwner",
          "type": "address"
        },
        {
          "indexed": true,
          "internalType": "address",
          "name": "newOwner",
          "type": "address"
        }
      ],
      "name": "OwnershipTransferred",
      "type": "event"
    },
    {
      "anonymous": false,
      "inputs": [
        {
          "indexed": true,
          "internalType": "address",
          "name": "from",
          "type": "address"
        },
        {
          "indexed": true,
          "internalType": "address",
          "name": "to",
          "type": "address"
        },
        {
          "indexed": true,
          "internalType": "uint256",
          "name": "tokenId",
          "type": "uint256"
        }
      ],
      "name": "Transfer",
      "type": "event"
    },
    {
      "anonymous": false,
      "inputs": [
        {
          "indexed": true,
          "internalType": "address",
          "name": "implementation",
          "type": "address"
        }
      ],
      "name": "Upgraded",
      "type": "event"
    },
    {
      "inputs": [
        {
          "internalType": "address",
          "name": "to",
          "type": "address"
        },
        {
          "internalType": "uint256",
          "name": "tokenId",
          "type": "uint256"
        }
      ],
      "name": "approve",
      "outputs": [],
      "stateMutability": "nonpayable",
      "type": "function"
    },
    {
      "inputs": [
        {
          "internalType": "address",
          "name": "owner",
          "type": "address"
        }
      ],
      "name": "balanceOf",
      "outputs": [
        {
          "internalType": "uint256",
          "name": "",
          "type": "uint256"
        }
      ],
      "stateMutability": "view",
      "type": "function"
    },
    {
      "inputs": [
        {
          "internalType": "uint256",
          "name": "tokenId",
          "type": "uint256"
        }
      ],
      "name": "burn",
      "outputs": [],
      "stateMutability": "nonpayable",
      "type": "function"
    },
    {
      "inputs": [
        {
          "internalType": "uint256",
          "name": "tokenId",
          "type": "uint256"
        }
      ],
      "name": "getApproved",
      "outputs": [
        {
          "internalType": "address",
          "name": "",
          "type": "address"
        }
      ],
      "stateMutability": "view",
      "type": "function"
    },
    {
      "inputs": [],
      "name": "initialize",
      "outputs": [],
      "stateMutability": "nonpayable",
      "type": "function"
    },
    {
      "inputs": [
        {
          "internalType": "address",
          "name": "owner",
          "type": "address"
        },
        {
          "internalType": "address",
          "name": "operator",
          "type": "address"
        }
      ],
      "name": "isApprovedForAll",
      "outputs": [
        {
          "internalType": "bool",
          "name": "",
          "type": "bool"
        }
      ],
      "stateMutability": "view",
      "type": "function"
    },
    {
      "inputs": [],
      "name": "name",
      "outputs": [
        {
          "internalType": "string",
          "name": "",
          "type": "string"
        }
      ],
      "stateMutability": "view",
      "type": "function"
    },
    {
      "inputs": [],
      "name": "owner",
      "outputs": [
        {
          "internalType": "address",
          "name": "",
          "type": "address"
        }
      ],
      "stateMutability": "view",
      "type": "function"
    },
    {
      "inputs": [
        {
          "internalType": "uint256",
          "name": "tokenId",
          "type": "uint256"
        }
      ],
      "name": "ownerOf",
      "outputs": [
        {
          "internalType": "address",
          "name": "",
          "type": "address"
        }
      ],
      "stateMutability": "view",
      "type": "function"
    },
    {
      "inputs": [],
      "name": "proxiableUUID",
      "outputs": [
        {
          "internalType": "bytes32",
          "name": "",
          "type": "bytes32"
        }
      ],
      "stateMutability": "view",
      "type": "function"
    },
    {
      "inputs": [],
      "name": "renounceOwnership",
      "outputs": [],
      "stateMutability": "nonpayable",
      "type": "function"
    },
    {
      "inputs": [
        {
          "internalType": "address",
          "name": "to",
          "type": "address"
        },
        {
          "internalType": "string",
          "name": "uri",
          "type": "string"
        }
      ],
      "name": "safeMint",
      "outputs": [],
      "stateMutability": "nonpayable",
      "type": "function"
    },
    {
      "inputs": [
        {
          "internalType": "address",
          "name": "from",
          "type": "address"
        },
        {
          "internalType": "address",
          "name": "to",
          "type": "address"
        },
        {
          "internalType": "uint256",
          "name": "tokenId",
          "type": "uint256"
        }
      ],
      "name": "safeTransferFrom",
      "outputs": [],
      "stateMutability": "nonpayable",
      "type": "function"
    },
    {
      "inputs": [
        {
          "internalType": "address",
          "name": "from",
          "type": "address"
        },
        {
          "internalType": "address",
          "name": "to",
          "type": "address"
        },
        {
          "internalType": "uint256",
          "name": "tokenId",
          "type": "uint256"
        },
        {
          "internalType": "bytes",
          "name": "data",
          "type": "bytes"
        }
      ],
      "name": "safeTransferFrom",
      "outputs": [],
      "stateMutability": "nonpayable",
      "type": "function"
    },
    {
      "inputs": [
        {
          "internalType": "address",
          "name": "operator",
          "type": "address"
        },
        {
          "internalType": "bool",
          "name": "approved",
          "type": "bool"
        }
      ],
      "name": "setApprovalForAll",
      "outputs": [],
      "stateMutability": "nonpayable",
      "type": "function"
    },
    {
      "inputs": [
        {
          "internalType": "string",
          "name": "_uri",
          "type": "string"
        }
      ],
      "name": "setBaseURI",
      "outputs": [],
      "stateMutability": "nonpayable",
      "type": "function"
    },
    {
      "inputs": [
        {
          "internalType": "bytes4",
          "name": "interfaceId",
          "type": "bytes4"
        }
      ],
      "name": "supportsInterface",
      "outputs": [
        {
          "internalType": "bool",
          "name": "",
          "type": "bool"
        }
      ],
      "stateMutability": "view",
      "type": "function"
    },
    {
      "inputs": [],
      "name": "symbol",
      "outputs": [
        {
          "internalType": "string",
          "name": "",
          "type": "string"
        }
      ],
      "stateMutability": "view",
      "type": "function"
    },
    {
      "inputs": [],
      "name": "test",
      "outputs": [
        {
          "internalType": "uint256",
          "name": "",
          "type": "uint256"
        }
      ],
      "stateMutability": "view",
      "type": "function"
    },
    {
      "inputs": [
        {
          "internalType": "uint256",
          "name": "tokenId",
          "type": "uint256"
        }
      ],
      "name": "tokenURI",
      "outputs": [
        {
          "internalType": "string",
          "name": "",
          "type": "string"
        }
      ],
      "stateMutability": "view",
      "type": "function"
    },
    {
      "inputs": [
        {
          "internalType": "address",
          "name": "from",
          "type": "address"
        },
        {
          "internalType": "address",
          "name": "to",
          "type": "address"
        },
        {
          "internalType": "uint256",
          "name": "tokenId",
          "type": "uint256"
        }
      ],
      "name": "transferFrom",
      "outputs": [],
      "stateMutability": "nonpayable",
      "type": "function"
    },
    {
      "inputs": [
        {
          "internalType": "address",
          "name": "newOwner",
          "type": "address"
        }
      ],
      "name": "transferOwnership",
      "outputs": [],
      "stateMutability": "nonpayable",
      "type": "function"
    },
    {
      "inputs": [
        {
          "internalType": "address",
          "name": "newImplementation",
          "type": "address"
        }
      ],
      "name": "upgradeTo",
      "outputs": [],
      "stateMutability": "nonpayable",
      "type": "function"
    },
    {
      "inputs": [
        {
          "internalType": "address",
          "name": "newImplementation",
          "type": "address"
        },
        {
          "internalType": "bytes",
          "name": "data",
          "type": "bytes"
        }
      ],
      "name": "upgradeToAndCall",
      "outputs": [],
      "stateMutability": "payable",
      "type": "function"
    }
  ],
  "bytecode": "0x60a06040523073ffffffffffffffffffffffffffffffffffffffff1660809073ffffffffffffffffffffffffffffffffffffffff168152503480156200004457600080fd5b50620000556200005b60201b60201c565b62000206565b600060019054906101000a900460ff1615620000ae576040517f08c379a0000000000000000000000000000000000000000000000000000000008152600401620000a590620001a9565b60405180910390fd5b60ff801660008054906101000a900460ff1660ff161015620001205760ff6000806101000a81548160ff021916908360ff1602179055507f7f26b83ff96e1f2b6a682f133852f6798a09c465da95921460cefb384740249860ff604051620001179190620001e9565b60405180910390a15b565b600082825260208201905092915050565b7f496e697469616c697a61626c653a20636f6e747261637420697320696e69746960008201527f616c697a696e6700000000000000000000000000000000000000000000000000602082015250565b60006200019160278362000122565b91506200019e8262000133565b604082019050919050565b60006020820190508181036000830152620001c48162000182565b9050919050565b600060ff82169050919050565b620001e381620001cb565b82525050565b6000602082019050620002006000830184620001d8565b92915050565b60805161486b6200023e600039600081816108ac0152818161093a01528181610ab001528181610b3e0152610bee015261486b6000f3fe60806040526004361061014b5760003560e01c806370a08231116100b6578063b88d4fde1161006f578063b88d4fde14610459578063c87b56dd14610482578063d204c45e146104bf578063e985e9c5146104e8578063f2fde38b14610525578063f8a8fd6d1461054e5761014b565b806370a082311461036f578063715018a6146103ac5780638129fc1c146103c35780638da5cb5b146103da57806395d89b4114610405578063a22cb465146104305761014b565b806342842e0e1161010857806342842e0e1461027057806342966c68146102995780634f1ef286146102c257806352d1902d146102de57806355f804b3146103095780636352211e146103325761014b565b806301ffc9a71461015057806306fdde031461018d578063081812fc146101b8578063095ea7b3146101f557806323b872dd1461021e5780633659cfe614610247575b600080fd5b34801561015c57600080fd5b5061017760048036038101906101729190612e94565b610579565b6040516101849190612edc565b60405180910390f35b34801561019957600080fd5b506101a261065b565b6040516101af9190612f87565b60405180910390f35b3480156101c457600080fd5b506101df60048036038101906101da9190612fdf565b6106ed565b6040516101ec919061304d565b60405180910390f35b34801561020157600080fd5b5061021c60048036038101906102179190613094565b610733565b005b34801561022a57600080fd5b50610245600480360381019061024091906130d4565b61084a565b005b34801561025357600080fd5b5061026e60048036038101906102699190613127565b6108aa565b005b34801561027c57600080fd5b50610297600480360381019061029291906130d4565b610a32565b005b3480156102a557600080fd5b506102c060048036038101906102bb9190612fdf565b610a52565b005b6102dc60048036038101906102d79190613289565b610aae565b005b3480156102ea57600080fd5b506102f3610bea565b60405161030091906132fe565b60405180910390f35b34801561031557600080fd5b50610330600480360381019061032b91906133ba565b610ca3565b005b34801561033e57600080fd5b5061035960048036038101906103549190612fdf565b610cbf565b604051610366919061304d565b60405180910390f35b34801561037b57600080fd5b5061039660048036038101906103919190613127565b610d45565b6040516103a39190613412565b60405180910390f35b3480156103b857600080fd5b506103c1610dfc565b005b3480156103cf57600080fd5b506103d8610e10565b005b3480156103e657600080fd5b506103ef610fe3565b6040516103fc919061304d565b60405180910390f35b34801561041157600080fd5b5061041a61100d565b6040516104279190612f87565b60405180910390f35b34801561043c57600080fd5b5061045760048036038101906104529190613459565b61109f565b005b34801561046557600080fd5b50610480600480360381019061047b9190613499565b6110b5565b005b34801561048e57600080fd5b506104a960048036038101906104a49190612fdf565b611117565b6040516104b69190612f87565b60405180910390f35b3480156104cb57600080fd5b506104e660048036038101906104e1919061351c565b611129565b005b3480156104f457600080fd5b5061050f600480360381019061050a9190613578565b61115c565b60405161051c9190612edc565b60405180910390f35b34801561053157600080fd5b5061054c60048036038101906105479190613127565b6111f0565b005b34801561055a57600080fd5b50610563611273565b6040516105709190613412565b60405180910390f35b60007f80ac58cd000000000000000000000000000000000000000000000000000000007bffffffffffffffffffffffffffffffffffffffffffffffffffffffff1916827bffffffffffffffffffffffffffffffffffffffffffffffffffffffff1916148061064457507f5b5e139f000000000000000000000000000000000000000000000000000000007bffffffffffffffffffffffffffffffffffffffffffffffffffffffff1916827bffffffffffffffffffffffffffffffffffffffffffffffffffffffff1916145b8061065457506106538261127a565b5b9050919050565b60606065805461066a906135e7565b80601f0160208091040260200160405190810160405280929190818152602001828054610696906135e7565b80156106e35780601f106106b8576101008083540402835291602001916106e3565b820191906000526020600020905b8154815290600101906020018083116106c657829003601f168201915b5050505050905090565b60006106f8826112e4565b6069600083815260200190815260200160002060009054906101000a900473ffffffffffffffffffffffffffffffffffffffff169050919050565b600061073e82610cbf565b90508073ffffffffffffffffffffffffffffffffffffffff168373ffffffffffffffffffffffffffffffffffffffff16036107ae576040517f08c379a00000000000000000000000000000000000000000000000000000000081526004016107a59061368a565b60405180910390fd5b8073ffffffffffffffffffffffffffffffffffffffff166107cd61132f565b73ffffffffffffffffffffffffffffffffffffffff1614806107fc57506107fb816107f661132f565b61115c565b5b61083b576040517f08c379a00000000000000000000000000000000000000000000000000000000081526004016108329061371c565b60405180910390fd5b6108458383611337565b505050565b61085b61085561132f565b826113f0565b61089a576040517f08c379a0000000000000000000000000000000000000000000000000000000008152600401610891906137ae565b60405180910390fd5b6108a5838383611485565b505050565b7f000000000000000000000000000000000000000000000000000000000000000073ffffffffffffffffffffffffffffffffffffffff163073ffffffffffffffffffffffffffffffffffffffff1603610938576040517f08c379a000000000000000000000000000000000000000000000000000000000815260040161092f90613840565b60405180910390fd5b7f000000000000000000000000000000000000000000000000000000000000000073ffffffffffffffffffffffffffffffffffffffff1661097761177e565b73ffffffffffffffffffffffffffffffffffffffff16146109cd576040517f08c379a00000000000000000000000000000000000000000000000000000000081526004016109c4906138d2565b60405180910390fd5b6109d6816117d5565b610a2f81600067ffffffffffffffff8111156109f5576109f461315e565b5b6040519080825280601f01601f191660200182016040528015610a275781602001600182028036833780820191505090505b5060006117e0565b50565b610a4d838383604051806020016040528060008152506110b5565b505050565b610a63610a5d61132f565b826113f0565b610aa2576040517f08c379a0000000000000000000000000000000000000000000000000000000008152600401610a99906137ae565b60405180910390fd5b610aab8161194e565b50565b7f000000000000000000000000000000000000000000000000000000000000000073ffffffffffffffffffffffffffffffffffffffff163073ffffffffffffffffffffffffffffffffffffffff1603610b3c576040517f08c379a0000000000000000000000000000000000000000000000000000000008152600401610b3390613840565b60405180910390fd5b7f000000000000000000000000000000000000000000000000000000000000000073ffffffffffffffffffffffffffffffffffffffff16610b7b61177e565b73ffffffffffffffffffffffffffffffffffffffff1614610bd1576040517f08c379a0000000000000000000000000000000000000000000000000000000008152600401610bc8906138d2565b60405180910390fd5b610bda826117d5565b610be6828260016117e0565b5050565b60007f000000000000000000000000000000000000000000000000000000000000000073ffffffffffffffffffffffffffffffffffffffff163073ffffffffffffffffffffffffffffffffffffffff1614610c7a576040517f08c379a0000000000000000000000000000000000000000000000000000000008152600401610c7190613964565b60405180910390fd5b7f360894a13ba1a3210667c828492db98dca3e2076cc3735a920a3ca505d382bbc60001b905090565b610cab61195a565b806101929081610cbb9190613b30565b5050565b600080610ccb836119d8565b9050600073ffffffffffffffffffffffffffffffffffffffff168173ffffffffffffffffffffffffffffffffffffffff1603610d3c576040517f08c379a0000000000000000000000000000000000000000000000000000000008152600401610d3390613c4e565b60405180910390fd5b80915050919050565b60008073ffffffffffffffffffffffffffffffffffffffff168273ffffffffffffffffffffffffffffffffffffffff1603610db5576040517f08c379a0000000000000000000000000000000000000000000000000000000008152600401610dac90613ce0565b60405180910390fd5b606860008373ffffffffffffffffffffffffffffffffffffffff1673ffffffffffffffffffffffffffffffffffffffff168152602001908152602001600020549050919050565b610e0461195a565b610e0e6000611a15565b565b60008060019054906101000a900460ff16159050808015610e415750600160008054906101000a900460ff1660ff16105b80610e6e5750610e5030611adb565b158015610e6d5750600160008054906101000a900460ff1660ff16145b5b610ead576040517f08c379a0000000000000000000000000000000000000000000000000000000008152600401610ea490613d72565b60405180910390fd5b60016000806101000a81548160ff021916908360ff1602179055508015610eea576001600060016101000a81548160ff0219169083151502179055505b610f5e6040518060400160405280600d81526020017f414920436f6c6c656374696f6e000000000000000000000000000000000000008152506040518060400160405280600381526020017f4149430000000000000000000000000000000000000000000000000000000000815250611afe565b610f66611b5b565b610f6e611bac565b610f76611bfd565b610f7e611c56565b6001610193819055508015610fe05760008060016101000a81548160ff0219169083151502179055507f7f26b83ff96e1f2b6a682f133852f6798a09c465da95921460cefb38474024986001604051610fd79190613dda565b60405180910390a15b50565b600060fb60009054906101000a900473ffffffffffffffffffffffffffffffffffffffff16905090565b60606066805461101c906135e7565b80601f0160208091040260200160405190810160405280929190818152602001828054611048906135e7565b80156110955780601f1061106a57610100808354040283529160200191611095565b820191906000526020600020905b81548152906001019060200180831161107857829003601f168201915b5050505050905090565b6110b16110aa61132f565b8383611ca7565b5050565b6110c66110c061132f565b836113f0565b611105576040517f08c379a00000000000000000000000000000000000000000000000000000000081526004016110fc906137ae565b60405180910390fd5b61111184848484611e13565b50505050565b606061112282611e6f565b9050919050565b6000611136610191611f81565b9050611143610191611f8f565b61114d8382611fa5565b6111578183611fc3565b505050565b6000606a60008473ffffffffffffffffffffffffffffffffffffffff1673ffffffffffffffffffffffffffffffffffffffff16815260200190815260200160002060008373ffffffffffffffffffffffffffffffffffffffff1673ffffffffffffffffffffffffffffffffffffffff16815260200190815260200160002060009054906101000a900460ff16905092915050565b6111f861195a565b600073ffffffffffffffffffffffffffffffffffffffff168173ffffffffffffffffffffffffffffffffffffffff1603611267576040517f08c379a000000000000000000000000000000000000000000000000000000000815260040161125e90613e67565b60405180910390fd5b61127081611a15565b50565b6101935481565b60007f01ffc9a7000000000000000000000000000000000000000000000000000000007bffffffffffffffffffffffffffffffffffffffffffffffffffffffff1916827bffffffffffffffffffffffffffffffffffffffffffffffffffffffff1916149050919050565b6112ed81612030565b61132c576040517f08c379a000000000000000000000000000000000000000000000000000000000815260040161132390613c4e565b60405180910390fd5b50565b600033905090565b816069600083815260200190815260200160002060006101000a81548173ffffffffffffffffffffffffffffffffffffffff021916908373ffffffffffffffffffffffffffffffffffffffff160217905550808273ffffffffffffffffffffffffffffffffffffffff166113aa83610cbf565b73ffffffffffffffffffffffffffffffffffffffff167f8c5be1e5ebec7d5bd14f71427d1e84f3dd0314c0f7b2291e5b200ac8c7c3b92560405160405180910390a45050565b6000806113fc83610cbf565b90508073ffffffffffffffffffffffffffffffffffffffff168473ffffffffffffffffffffffffffffffffffffffff16148061143e575061143d818561115c565b5b8061147c57508373ffffffffffffffffffffffffffffffffffffffff16611464846106ed565b73ffffffffffffffffffffffffffffffffffffffff16145b91505092915050565b8273ffffffffffffffffffffffffffffffffffffffff166114a582610cbf565b73ffffffffffffffffffffffffffffffffffffffff16146114fb576040517f08c379a00000000000000000000000000000000000000000000000000000000081526004016114f290613ef9565b60405180910390fd5b600073ffffffffffffffffffffffffffffffffffffffff168273ffffffffffffffffffffffffffffffffffffffff160361156a576040517f08c379a000000000000000000000000000000000000000000000000000000000815260040161156190613f8b565b60405180910390fd5b6115778383836001612071565b8273ffffffffffffffffffffffffffffffffffffffff1661159782610cbf565b73ffffffffffffffffffffffffffffffffffffffff16146115ed576040517f08c379a00000000000000000000000000000000000000000000000000000000081526004016115e490613ef9565b60405180910390fd5b6069600082815260200190815260200160002060006101000a81549073ffffffffffffffffffffffffffffffffffffffff02191690556001606860008573ffffffffffffffffffffffffffffffffffffffff1673ffffffffffffffffffffffffffffffffffffffff168152602001908152602001600020600082825403925050819055506001606860008473ffffffffffffffffffffffffffffffffffffffff1673ffffffffffffffffffffffffffffffffffffffff16815260200190815260200160002060008282540192505081905550816067600083815260200190815260200160002060006101000a81548173ffffffffffffffffffffffffffffffffffffffff021916908373ffffffffffffffffffffffffffffffffffffffff160217905550808273ffffffffffffffffffffffffffffffffffffffff168473ffffffffffffffffffffffffffffffffffffffff167fddf252ad1be2c89b69c2b068fc378daa952ba7f163c4a11628f55a4df523b3ef60405160405180910390a46117798383836001612197565b505050565b60006117ac7f360894a13ba1a3210667c828492db98dca3e2076cc3735a920a3ca505d382bbc60001b61219d565b60000160009054906101000a900473ffffffffffffffffffffffffffffffffffffffff16905090565b6117dd61195a565b50565b61180c7f4910fdfa16fed3260ed0e7147f7cc6da11a60208b5b9406d12a635614ffd914360001b6121a7565b60000160009054906101000a900460ff16156118305761182b836121b1565b611949565b8273ffffffffffffffffffffffffffffffffffffffff166352d1902d6040518163ffffffff1660e01b8152600401602060405180830381865afa92505050801561189857506040513d601f19601f820116820180604052508101906118959190613fd7565b60015b6118d7576040517f08c379a00000000000000000000000000000000000000000000000000000000081526004016118ce90614076565b60405180910390fd5b7f360894a13ba1a3210667c828492db98dca3e2076cc3735a920a3ca505d382bbc60001b811461193c576040517f08c379a000000000000000000000000000000000000000000000000000000000815260040161193390614108565b60405180910390fd5b5061194883838361226a565b5b505050565b61195781612296565b50565b61196261132f565b73ffffffffffffffffffffffffffffffffffffffff16611980610fe3565b73ffffffffffffffffffffffffffffffffffffffff16146119d6576040517f08c379a00000000000000000000000000000000000000000000000000000000081526004016119cd90614174565b60405180910390fd5b565b60006067600083815260200190815260200160002060009054906101000a900473ffffffffffffffffffffffffffffffffffffffff169050919050565b600060fb60009054906101000a900473ffffffffffffffffffffffffffffffffffffffff1690508160fb60006101000a81548173ffffffffffffffffffffffffffffffffffffffff021916908373ffffffffffffffffffffffffffffffffffffffff1602179055508173ffffffffffffffffffffffffffffffffffffffff168173ffffffffffffffffffffffffffffffffffffffff167f8be0079c531659141344cd1fd0a4f28419497f9722a3daafe3b4186f6b6457e060405160405180910390a35050565b6000808273ffffffffffffffffffffffffffffffffffffffff163b119050919050565b600060019054906101000a900460ff16611b4d576040517f08c379a0000000000000000000000000000000000000000000000000000000008152600401611b4490614206565b60405180910390fd5b611b5782826122e9565b5050565b600060019054906101000a900460ff16611baa576040517f08c379a0000000000000000000000000000000000000000000000000000000008152600401611ba190614206565b60405180910390fd5b565b600060019054906101000a900460ff16611bfb576040517f08c379a0000000000000000000000000000000000000000000000000000000008152600401611bf290614206565b60405180910390fd5b565b600060019054906101000a900460ff16611c4c576040517f08c379a0000000000000000000000000000000000000000000000000000000008152600401611c4390614206565b60405180910390fd5b611c5461235c565b565b600060019054906101000a900460ff16611ca5576040517f08c379a0000000000000000000000000000000000000000000000000000000008152600401611c9c90614206565b60405180910390fd5b565b8173ffffffffffffffffffffffffffffffffffffffff168373ffffffffffffffffffffffffffffffffffffffff1603611d15576040517f08c379a0000000000000000000000000000000000000000000000000000000008152600401611d0c90614272565b60405180910390fd5b80606a60008573ffffffffffffffffffffffffffffffffffffffff1673ffffffffffffffffffffffffffffffffffffffff16815260200190815260200160002060008473ffffffffffffffffffffffffffffffffffffffff1673ffffffffffffffffffffffffffffffffffffffff16815260200190815260200160002060006101000a81548160ff0219169083151502179055508173ffffffffffffffffffffffffffffffffffffffff168373ffffffffffffffffffffffffffffffffffffffff167f17307eab39ab6107e8899845ad3d59bd9653f200f220920489ca2b5937696c3183604051611e069190612edc565b60405180910390a3505050565b611e1e848484611485565b611e2a848484846123bd565b611e69576040517f08c379a0000000000000000000000000000000000000000000000000000000008152600401611e6090614304565b60405180910390fd5b50505050565b6060611e7a826112e4565b6000609760008481526020019081526020016000208054611e9a906135e7565b80601f0160208091040260200160405190810160405280929190818152602001828054611ec6906135e7565b8015611f135780601f10611ee857610100808354040283529160200191611f13565b820191906000526020600020905b815481529060010190602001808311611ef657829003601f168201915b505050505090506000611f24612544565b90506000815103611f39578192505050611f7c565b600082511115611f6e578082604051602001611f56929190614360565b60405160208183030381529060405292505050611f7c565b611f77846125d7565b925050505b919050565b600081600001549050919050565b6001816000016000828254019250508190555050565b611fbf82826040518060200160405280600081525061263f565b5050565b611fcc82612030565b61200b576040517f08c379a0000000000000000000000000000000000000000000000000000000008152600401612002906143f6565b60405180910390fd5b8060976000848152602001908152602001600020908161202b9190613b30565b505050565b60008073ffffffffffffffffffffffffffffffffffffffff16612052836119d8565b73ffffffffffffffffffffffffffffffffffffffff1614159050919050565b600181111561219157600073ffffffffffffffffffffffffffffffffffffffff168473ffffffffffffffffffffffffffffffffffffffff16146121055780606860008673ffffffffffffffffffffffffffffffffffffffff1673ffffffffffffffffffffffffffffffffffffffff16815260200190815260200160002060008282546120fd9190614445565b925050819055505b600073ffffffffffffffffffffffffffffffffffffffff168373ffffffffffffffffffffffffffffffffffffffff16146121905780606860008573ffffffffffffffffffffffffffffffffffffffff1673ffffffffffffffffffffffffffffffffffffffff16815260200190815260200160002060008282546121889190614479565b925050819055505b5b50505050565b50505050565b6000819050919050565b6000819050919050565b6121ba81611adb565b6121f9576040517f08c379a00000000000000000000000000000000000000000000000000000000081526004016121f09061451f565b60405180910390fd5b806122267f360894a13ba1a3210667c828492db98dca3e2076cc3735a920a3ca505d382bbc60001b61219d565b60000160006101000a81548173ffffffffffffffffffffffffffffffffffffffff021916908373ffffffffffffffffffffffffffffffffffffffff16021790555050565b6122738361269a565b6000825111806122805750805b156122915761228f83836126e9565b505b505050565b61229f816127cd565b60006097600083815260200190815260200160002080546122bf906135e7565b9050146122e6576097600082815260200190815260200160002060006122e59190612dcb565b5b50565b600060019054906101000a900460ff16612338576040517f08c379a000000000000000000000000000000000000000000000000000000000815260040161232f90614206565b60405180910390fd5b81606590816123479190613b30565b5080606690816123579190613b30565b505050565b600060019054906101000a900460ff166123ab576040517f08c379a00000000000000000000000000000000000000000000000000000000081526004016123a290614206565b60405180910390fd5b6123bb6123b661132f565b611a15565b565b60006123de8473ffffffffffffffffffffffffffffffffffffffff16611adb565b15612537578373ffffffffffffffffffffffffffffffffffffffff1663150b7a0261240761132f565b8786866040518563ffffffff1660e01b81526004016124299493929190614594565b6020604051808303816000875af192505050801561246557506040513d601f19601f8201168201806040525081019061246291906145f5565b60015b6124e7573d8060008114612495576040519150601f19603f3d011682016040523d82523d6000602084013e61249a565b606091505b5060008151036124df576040517f08c379a00000000000000000000000000000000000000000000000000000000081526004016124d690614304565b60405180910390fd5b805181602001fd5b63150b7a0260e01b7bffffffffffffffffffffffffffffffffffffffffffffffffffffffff1916817bffffffffffffffffffffffffffffffffffffffffffffffffffffffff19161491505061253c565b600190505b949350505050565b60606101928054612554906135e7565b80601f0160208091040260200160405190810160405280929190818152602001828054612580906135e7565b80156125cd5780601f106125a2576101008083540402835291602001916125cd565b820191906000526020600020905b8154815290600101906020018083116125b057829003601f168201915b5050505050905090565b60606125e2826112e4565b60006125ec612544565b9050600081511161260c5760405180602001604052806000815250612637565b806126168461291b565b604051602001612627929190614360565b6040516020818303038152906040525b915050919050565b61264983836129e9565b61265660008484846123bd565b612695576040517f08c379a000000000000000000000000000000000000000000000000000000000815260040161268c90614304565b60405180910390fd5b505050565b6126a3816121b1565b8073ffffffffffffffffffffffffffffffffffffffff167fbc7cd75a20ee27fd9adebab32041f755214dbc6bffa90cc0225b39da2e5c2d3b60405160405180910390a250565b60606126f483611adb565b612733576040517f08c379a000000000000000000000000000000000000000000000000000000000815260040161272a90614694565b60405180910390fd5b6000808473ffffffffffffffffffffffffffffffffffffffff168460405161275b91906146f0565b600060405180830381855af49150503d8060008114612796576040519150601f19603f3d011682016040523d82523d6000602084013e61279b565b606091505b50915091506127c3828260405180606001604052806027815260200161480f60279139612c06565b9250505092915050565b60006127d882610cbf565b90506127e8816000846001612071565b6127f182610cbf565b90506069600083815260200190815260200160002060006101000a81549073ffffffffffffffffffffffffffffffffffffffff02191690556001606860008373ffffffffffffffffffffffffffffffffffffffff1673ffffffffffffffffffffffffffffffffffffffff168152602001908152602001600020600082825403925050819055506067600083815260200190815260200160002060006101000a81549073ffffffffffffffffffffffffffffffffffffffff021916905581600073ffffffffffffffffffffffffffffffffffffffff168273ffffffffffffffffffffffffffffffffffffffff167fddf252ad1be2c89b69c2b068fc378daa952ba7f163c4a11628f55a4df523b3ef60405160405180910390a4612917816000846001612197565b5050565b60606000600161292a84612c28565b01905060008167ffffffffffffffff8111156129495761294861315e565b5b6040519080825280601f01601f19166020018201604052801561297b5781602001600182028036833780820191505090505b509050600082602001820190505b6001156129de578080600190039150507f3031323334353637383961626364656600000000000000000000000000000000600a86061a8153600a85816129d2576129d1614707565b5b04945060008503612989575b819350505050919050565b600073ffffffffffffffffffffffffffffffffffffffff168273ffffffffffffffffffffffffffffffffffffffff1603612a58576040517f08c379a0000000000000000000000000000000000000000000000000000000008152600401612a4f90614782565b60405180910390fd5b612a6181612030565b15612aa1576040517f08c379a0000000000000000000000000000000000000000000000000000000008152600401612a98906147ee565b60405180910390fd5b612aaf600083836001612071565b612ab881612030565b15612af8576040517f08c379a0000000000000000000000000000000000000000000000000000000008152600401612aef906147ee565b60405180910390fd5b6001606860008473ffffffffffffffffffffffffffffffffffffffff1673ffffffffffffffffffffffffffffffffffffffff16815260200190815260200160002060008282540192505081905550816067600083815260200190815260200160002060006101000a81548173ffffffffffffffffffffffffffffffffffffffff021916908373ffffffffffffffffffffffffffffffffffffffff160217905550808273ffffffffffffffffffffffffffffffffffffffff16600073ffffffffffffffffffffffffffffffffffffffff167fddf252ad1be2c89b69c2b068fc378daa952ba7f163c4a11628f55a4df523b3ef60405160405180910390a4612c02600083836001612197565b5050565b60608315612c1657829050612c21565b612c208383612d7b565b5b9392505050565b600080600090507a184f03e93ff9f4daa797ed6e38ed64bf6a1f0100000000000000008310612c86577a184f03e93ff9f4daa797ed6e38ed64bf6a1f0100000000000000008381612c7c57612c7b614707565b5b0492506040810190505b6d04ee2d6d415b85acef81000000008310612cc3576d04ee2d6d415b85acef81000000008381612cb957612cb8614707565b5b0492506020810190505b662386f26fc100008310612cf257662386f26fc100008381612ce857612ce7614707565b5b0492506010810190505b6305f5e1008310612d1b576305f5e1008381612d1157612d10614707565b5b0492506008810190505b6127108310612d40576127108381612d3657612d35614707565b5b0492506004810190505b60648310612d635760648381612d5957612d58614707565b5b0492506002810190505b600a8310612d72576001810190505b80915050919050565b600082511115612d8e5781518083602001fd5b806040517f08c379a0000000000000000000000000000000000000000000000000000000008152600401612dc29190612f87565b60405180910390fd5b508054612dd7906135e7565b6000825580601f10612de95750612e08565b601f016020900490600052602060002090810190612e079190612e0b565b5b50565b5b80821115612e24576000816000905550600101612e0c565b5090565b6000604051905090565b600080fd5b600080fd5b60007fffffffff0000000000000000000000000000000000000000000000000000000082169050919050565b612e7181612e3c565b8114612e7c57600080fd5b50565b600081359050612e8e81612e68565b92915050565b600060208284031215612eaa57612ea9612e32565b5b6000612eb884828501612e7f565b91505092915050565b60008115159050919050565b612ed681612ec1565b82525050565b6000602082019050612ef16000830184612ecd565b92915050565b600081519050919050565b600082825260208201905092915050565b60005b83811015612f31578082015181840152602081019050612f16565b60008484015250505050565b6000601f19601f8301169050919050565b6000612f5982612ef7565b612f638185612f02565b9350612f73818560208601612f13565b612f7c81612f3d565b840191505092915050565b60006020820190508181036000830152612fa18184612f4e565b905092915050565b6000819050919050565b612fbc81612fa9565b8114612fc757600080fd5b50565b600081359050612fd981612fb3565b92915050565b600060208284031215612ff557612ff4612e32565b5b600061300384828501612fca565b91505092915050565b600073ffffffffffffffffffffffffffffffffffffffff82169050919050565b60006130378261300c565b9050919050565b6130478161302c565b82525050565b6000602082019050613062600083018461303e565b92915050565b6130718161302c565b811461307c57600080fd5b50565b60008135905061308e81613068565b92915050565b600080604083850312156130ab576130aa612e32565b5b60006130b98582860161307f565b92505060206130ca85828601612fca565b9150509250929050565b6000806000606084860312156130ed576130ec612e32565b5b60006130fb8682870161307f565b935050602061310c8682870161307f565b925050604061311d86828701612fca565b9150509250925092565b60006020828403121561313d5761313c612e32565b5b600061314b8482850161307f565b91505092915050565b600080fd5b600080fd5b7f4e487b7100000000000000000000000000000000000000000000000000000000600052604160045260246000fd5b61319682612f3d565b810181811067ffffffffffffffff821117156131b5576131b461315e565b5b80604052505050565b60006131c8612e28565b90506131d4828261318d565b919050565b600067ffffffffffffffff8211156131f4576131f361315e565b5b6131fd82612f3d565b9050602081019050919050565b82818337600083830152505050565b600061322c613227846131d9565b6131be565b90508281526020810184848401111561324857613247613159565b5b61325384828561320a565b509392505050565b600082601f8301126132705761326f613154565b5b8135613280848260208601613219565b91505092915050565b600080604083850312156132a05761329f612e32565b5b60006132ae8582860161307f565b925050602083013567ffffffffffffffff8111156132cf576132ce612e37565b5b6132db8582860161325b565b9150509250929050565b6000819050919050565b6132f8816132e5565b82525050565b600060208201905061331360008301846132ef565b92915050565b600067ffffffffffffffff8211156133345761333361315e565b5b61333d82612f3d565b9050602081019050919050565b600061335d61335884613319565b6131be565b90508281526020810184848401111561337957613378613159565b5b61338484828561320a565b509392505050565b600082601f8301126133a1576133a0613154565b5b81356133b184826020860161334a565b91505092915050565b6000602082840312156133d0576133cf612e32565b5b600082013567ffffffffffffffff8111156133ee576133ed612e37565b5b6133fa8482850161338c565b91505092915050565b61340c81612fa9565b82525050565b60006020820190506134276000830184613403565b92915050565b61343681612ec1565b811461344157600080fd5b50565b6000813590506134538161342d565b92915050565b600080604083850312156134705761346f612e32565b5b600061347e8582860161307f565b925050602061348f85828601613444565b9150509250929050565b600080600080608085870312156134b3576134b2612e32565b5b60006134c18782880161307f565b94505060206134d28782880161307f565b93505060406134e387828801612fca565b925050606085013567ffffffffffffffff81111561350457613503612e37565b5b6135108782880161325b565b91505092959194509250565b6000806040838503121561353357613532612e32565b5b60006135418582860161307f565b925050602083013567ffffffffffffffff81111561356257613561612e37565b5b61356e8582860161338c565b9150509250929050565b6000806040838503121561358f5761358e612e32565b5b600061359d8582860161307f565b92505060206135ae8582860161307f565b9150509250929050565b7f4e487b7100000000000000000000000000000000000000000000000000000000600052602260045260246000fd5b600060028204905060018216806135ff57607f821691505b602082108103613612576136116135b8565b5b50919050565b7f4552433732313a20617070726f76616c20746f2063757272656e74206f776e6560008201527f7200000000000000000000000000000000000000000000000000000000000000602082015250565b6000613674602183612f02565b915061367f82613618565b604082019050919050565b600060208201905081810360008301526136a381613667565b9050919050565b7f4552433732313a20617070726f76652063616c6c6572206973206e6f7420746f60008201527f6b656e206f776e6572206f7220617070726f76656420666f7220616c6c000000602082015250565b6000613706603d83612f02565b9150613711826136aa565b604082019050919050565b60006020820190508181036000830152613735816136f9565b9050919050565b7f4552433732313a2063616c6c6572206973206e6f7420746f6b656e206f776e6560008201527f72206f7220617070726f76656400000000000000000000000000000000000000602082015250565b6000613798602d83612f02565b91506137a38261373c565b604082019050919050565b600060208201905081810360008301526137c78161378b565b9050919050565b7f46756e6374696f6e206d7573742062652063616c6c6564207468726f7567682060008201527f64656c656761746563616c6c0000000000000000000000000000000000000000602082015250565b600061382a602c83612f02565b9150613835826137ce565b604082019050919050565b600060208201905081810360008301526138598161381d565b9050919050565b7f46756e6374696f6e206d7573742062652063616c6c6564207468726f7567682060008201527f6163746976652070726f78790000000000000000000000000000000000000000602082015250565b60006138bc602c83612f02565b91506138c782613860565b604082019050919050565b600060208201905081810360008301526138eb816138af565b9050919050565b7f555550535570677261646561626c653a206d757374206e6f742062652063616c60008201527f6c6564207468726f7567682064656c656761746563616c6c0000000000000000602082015250565b600061394e603883612f02565b9150613959826138f2565b604082019050919050565b6000602082019050818103600083015261397d81613941565b9050919050565b60008190508160005260206000209050919050565b60006020601f8301049050919050565b600082821b905092915050565b6000600883026139e67fffffffffffffffffffffffffffffffffffffffffffffffffffffffffffffffff826139a9565b6139f086836139a9565b95508019841693508086168417925050509392505050565b6000819050919050565b6000613a2d613a28613a2384612fa9565b613a08565b612fa9565b9050919050565b6000819050919050565b613a4783613a12565b613a5b613a5382613a34565b8484546139b6565b825550505050565b600090565b613a70613a63565b613a7b818484613a3e565b505050565b5b81811015613a9f57613a94600082613a68565b600181019050613a81565b5050565b601f821115613ae457613ab581613984565b613abe84613999565b81016020851015613acd578190505b613ae1613ad985613999565b830182613a80565b50505b505050565b600082821c905092915050565b6000613b0760001984600802613ae9565b1980831691505092915050565b6000613b208383613af6565b9150826002028217905092915050565b613b3982612ef7565b67ffffffffffffffff811115613b5257613b5161315e565b5b613b5c82546135e7565b613b67828285613aa3565b600060209050601f831160018114613b9a5760008415613b88578287015190505b613b928582613b14565b865550613bfa565b601f198416613ba886613984565b60005b82811015613bd057848901518255600182019150602085019450602081019050613bab565b86831015613bed5784890151613be9601f891682613af6565b8355505b6001600288020188555050505b505050505050565b7f4552433732313a20696e76616c696420746f6b656e2049440000000000000000600082015250565b6000613c38601883612f02565b9150613c4382613c02565b602082019050919050565b60006020820190508181036000830152613c6781613c2b565b9050919050565b7f4552433732313a2061646472657373207a65726f206973206e6f74206120766160008201527f6c6964206f776e65720000000000000000000000000000000000000000000000602082015250565b6000613cca602983612f02565b9150613cd582613c6e565b604082019050919050565b60006020820190508181036000830152613cf981613cbd565b9050919050565b7f496e697469616c697a61626c653a20636f6e747261637420697320616c72656160008201527f647920696e697469616c697a6564000000000000000000000000000000000000602082015250565b6000613d5c602e83612f02565b9150613d6782613d00565b604082019050919050565b60006020820190508181036000830152613d8b81613d4f565b9050919050565b6000819050919050565b600060ff82169050919050565b6000613dc4613dbf613dba84613d92565b613a08565b613d9c565b9050919050565b613dd481613da9565b82525050565b6000602082019050613def6000830184613dcb565b92915050565b7f4f776e61626c653a206e6577206f776e657220697320746865207a65726f206160008201527f6464726573730000000000000000000000000000000000000000000000000000602082015250565b6000613e51602683612f02565b9150613e5c82613df5565b604082019050919050565b60006020820190508181036000830152613e8081613e44565b9050919050565b7f4552433732313a207472616e736665722066726f6d20696e636f72726563742060008201527f6f776e6572000000000000000000000000000000000000000000000000000000602082015250565b6000613ee3602583612f02565b9150613eee82613e87565b604082019050919050565b60006020820190508181036000830152613f1281613ed6565b9050919050565b7f4552433732313a207472616e7366657220746f20746865207a65726f2061646460008201527f7265737300000000000000000000000000000000000000000000000000000000602082015250565b6000613f75602483612f02565b9150613f8082613f19565b604082019050919050565b60006020820190508181036000830152613fa481613f68565b9050919050565b613fb4816132e5565b8114613fbf57600080fd5b50565b600081519050613fd181613fab565b92915050565b600060208284031215613fed57613fec612e32565b5b6000613ffb84828501613fc2565b91505092915050565b7f45524331393637557067726164653a206e657720696d706c656d656e7461746960008201527f6f6e206973206e6f742055555053000000000000000000000000000000000000602082015250565b6000614060602e83612f02565b915061406b82614004565b604082019050919050565b6000602082019050818103600083015261408f81614053565b9050919050565b7f45524331393637557067726164653a20756e737570706f727465642070726f7860008201527f6961626c65555549440000000000000000000000000000000000000000000000602082015250565b60006140f2602983612f02565b91506140fd82614096565b604082019050919050565b60006020820190508181036000830152614121816140e5565b9050919050565b7f4f776e61626c653a2063616c6c6572206973206e6f7420746865206f776e6572600082015250565b600061415e602083612f02565b915061416982614128565b602082019050919050565b6000602082019050818103600083015261418d81614151565b9050919050565b7f496e697469616c697a61626c653a20636f6e7472616374206973206e6f74206960008201527f6e697469616c697a696e67000000000000000000000000000000000000000000602082015250565b60006141f0602b83612f02565b91506141fb82614194565b604082019050919050565b6000602082019050818103600083015261421f816141e3565b9050919050565b7f4552433732313a20617070726f766520746f2063616c6c657200000000000000600082015250565b600061425c601983612f02565b915061426782614226565b602082019050919050565b6000602082019050818103600083015261428b8161424f565b9050919050565b7f4552433732313a207472616e7366657220746f206e6f6e20455243373231526560008201527f63656976657220696d706c656d656e7465720000000000000000000000000000602082015250565b60006142ee603283612f02565b91506142f982614292565b604082019050919050565b6000602082019050818103600083015261431d816142e1565b9050919050565b600081905092915050565b600061433a82612ef7565b6143448185614324565b9350614354818560208601612f13565b80840191505092915050565b600061436c828561432f565b9150614378828461432f565b91508190509392505050565b7f45524337323155524953746f726167653a2055524920736574206f66206e6f6e60008201527f6578697374656e7420746f6b656e000000000000000000000000000000000000602082015250565b60006143e0602e83612f02565b91506143eb82614384565b604082019050919050565b6000602082019050818103600083015261440f816143d3565b9050919050565b7f4e487b7100000000000000000000000000000000000000000000000000000000600052601160045260246000fd5b600061445082612fa9565b915061445b83612fa9565b925082820390508181111561447357614472614416565b5b92915050565b600061448482612fa9565b915061448f83612fa9565b92508282019050808211156144a7576144a6614416565b5b92915050565b7f455243313936373a206e657720696d706c656d656e746174696f6e206973206e60008201527f6f74206120636f6e747261637400000000000000000000000000000000000000602082015250565b6000614509602d83612f02565b9150614514826144ad565b604082019050919050565b60006020820190508181036000830152614538816144fc565b9050919050565b600081519050919050565b600082825260208201905092915050565b60006145668261453f565b614570818561454a565b9350614580818560208601612f13565b61458981612f3d565b840191505092915050565b60006080820190506145a9600083018761303e565b6145b6602083018661303e565b6145c36040830185613403565b81810360608301526145d5818461455b565b905095945050505050565b6000815190506145ef81612e68565b92915050565b60006020828403121561460b5761460a612e32565b5b6000614619848285016145e0565b91505092915050565b7f416464726573733a2064656c65676174652063616c6c20746f206e6f6e2d636f60008201527f6e74726163740000000000000000000000000000000000000000000000000000602082015250565b600061467e602683612f02565b915061468982614622565b604082019050919050565b600060208201905081810360008301526146ad81614671565b9050919050565b600081905092915050565b60006146ca8261453f565b6146d481856146b4565b93506146e4818560208601612f13565b80840191505092915050565b60006146fc82846146bf565b915081905092915050565b7f4e487b7100000000000000000000000000000000000000000000000000000000600052601260045260246000fd5b7f4552433732313a206d696e7420746f20746865207a65726f2061646472657373600082015250565b600061476c602083612f02565b915061477782614736565b602082019050919050565b6000602082019050818103600083015261479b8161475f565b9050919050565b7f4552433732313a20746f6b656e20616c7265616479206d696e74656400000000600082015250565b60006147d8601c83612f02565b91506147e3826147a2565b602082019050919050565b60006020820190508181036000830152614807816147cb565b905091905056fe416464726573733a206c6f772d6c6576656c2064656c65676174652063616c6c206661696c6564a2646970667358221220ea2bfda702d897c77387f66a89aad319ff41750dd71dfeaaf0cb985731a1649164736f6c63430008110033",
  "linkReferences": {},
  "deployedLinkReferences": {}
}